{
  "_format": "hh3-artifact-1",
  "contractName": "UniversityDegreesSBT",
  "sourceName": "contracts/UniversityDegreesSBT.sol",
  "abi": [
    {
      "inputs": [
        {
          "internalType": "string",
          "name": "name_",
          "type": "string"
        },
        {
          "internalType": "string",
          "name": "symbol_",
          "type": "string"
        }
      ],
      "stateMutability": "nonpayable",
      "type": "constructor"
    },
    {
      "inputs": [],
      "name": "AccessControlBadConfirmation",
      "type": "error"
    },
    {
      "inputs": [
        {
          "internalType": "address",
          "name": "account",
          "type": "address"
        },
        {
          "internalType": "bytes32",
          "name": "neededRole",
          "type": "bytes32"
        }
      ],
      "name": "AccessControlUnauthorizedAccount",
      "type": "error"
    },
    {
      "inputs": [
        {
          "internalType": "address",
          "name": "sender",
          "type": "address"
        },
        {
          "internalType": "uint256",
          "name": "tokenId",
          "type": "uint256"
        },
        {
          "internalType": "address",
          "name": "owner",
          "type": "address"
        }
      ],
      "name": "ERC721IncorrectOwner",
      "type": "error"
    },
    {
      "inputs": [
        {
          "internalType": "address",
          "name": "operator",
          "type": "address"
        },
        {
          "internalType": "uint256",
          "name": "tokenId",
          "type": "uint256"
        }
      ],
      "name": "ERC721InsufficientApproval",
      "type": "error"
    },
    {
      "inputs": [
        {
          "internalType": "address",
          "name": "approver",
          "type": "address"
        }
      ],
      "name": "ERC721InvalidApprover",
      "type": "error"
    },
    {
      "inputs": [
        {
          "internalType": "address",
          "name": "operator",
          "type": "address"
        }
      ],
      "name": "ERC721InvalidOperator",
      "type": "error"
    },
    {
      "inputs": [
        {
          "internalType": "address",
          "name": "owner",
          "type": "address"
        }
      ],
      "name": "ERC721InvalidOwner",
      "type": "error"
    },
    {
      "inputs": [
        {
          "internalType": "address",
          "name": "receiver",
          "type": "address"
        }
      ],
      "name": "ERC721InvalidReceiver",
      "type": "error"
    },
    {
      "inputs": [
        {
          "internalType": "address",
          "name": "sender",
          "type": "address"
        }
      ],
      "name": "ERC721InvalidSender",
      "type": "error"
    },
    {
      "inputs": [
        {
          "internalType": "uint256",
          "name": "tokenId",
          "type": "uint256"
        }
      ],
      "name": "ERC721NonexistentToken",
      "type": "error"
    },
    {
      "anonymous": false,
      "inputs": [
        {
          "indexed": true,
          "internalType": "address",
          "name": "owner",
          "type": "address"
        },
        {
          "indexed": true,
          "internalType": "address",
          "name": "approved",
          "type": "address"
        },
        {
          "indexed": true,
          "internalType": "uint256",
          "name": "tokenId",
          "type": "uint256"
        }
      ],
      "name": "Approval",
      "type": "event"
    },
    {
      "anonymous": false,
      "inputs": [
        {
          "indexed": true,
          "internalType": "address",
          "name": "owner",
          "type": "address"
        },
        {
          "indexed": true,
          "internalType": "address",
          "name": "operator",
          "type": "address"
        },
        {
          "indexed": false,
          "internalType": "bool",
          "name": "approved",
          "type": "bool"
        }
      ],
      "name": "ApprovalForAll",
      "type": "event"
    },
    {
      "anonymous": false,
      "inputs": [
        {
          "indexed": true,
          "internalType": "uint256",
          "name": "tokenId",
          "type": "uint256"
        },
        {
          "indexed": true,
          "internalType": "address",
          "name": "to",
          "type": "address"
        },
        {
          "indexed": true,
          "internalType": "address",
          "name": "issuer",
          "type": "address"
        }
      ],
      "name": "DegreeIssued",
      "type": "event"
    },
    {
      "anonymous": false,
      "inputs": [
        {
          "indexed": true,
          "internalType": "bytes32",
          "name": "role",
          "type": "bytes32"
        },
        {
          "indexed": true,
          "internalType": "bytes32",
          "name": "previousAdminRole",
          "type": "bytes32"
        },
        {
          "indexed": true,
          "internalType": "bytes32",
          "name": "newAdminRole",
          "type": "bytes32"
        }
      ],
      "name": "RoleAdminChanged",
      "type": "event"
    },
    {
      "anonymous": false,
      "inputs": [
        {
          "indexed": true,
          "internalType": "bytes32",
          "name": "role",
          "type": "bytes32"
        },
        {
          "indexed": true,
          "internalType": "address",
          "name": "account",
          "type": "address"
        },
        {
          "indexed": true,
          "internalType": "address",
          "name": "sender",
          "type": "address"
        }
      ],
      "name": "RoleGranted",
      "type": "event"
    },
    {
      "anonymous": false,
      "inputs": [
        {
          "indexed": true,
          "internalType": "bytes32",
          "name": "role",
          "type": "bytes32"
        },
        {
          "indexed": true,
          "internalType": "address",
          "name": "account",
          "type": "address"
        },
        {
          "indexed": true,
          "internalType": "address",
          "name": "sender",
          "type": "address"
        }
      ],
      "name": "RoleRevoked",
      "type": "event"
    },
    {
      "anonymous": false,
      "inputs": [
        {
          "indexed": true,
          "internalType": "address",
          "name": "from",
          "type": "address"
        },
        {
          "indexed": true,
          "internalType": "address",
          "name": "to",
          "type": "address"
        },
        {
          "indexed": true,
          "internalType": "uint256",
          "name": "tokenId",
          "type": "uint256"
        }
      ],
      "name": "Transfer",
      "type": "event"
    },
    {
      "anonymous": false,
      "inputs": [
        {
          "indexed": true,
          "internalType": "address",
          "name": "ministry",
          "type": "address"
        },
        {
          "indexed": true,
          "internalType": "address",
          "name": "university",
          "type": "address"
        }
      ],
      "name": "UniversityAssigned",
      "type": "event"
    },
    {
      "anonymous": false,
      "inputs": [
        {
          "indexed": true,
          "internalType": "address",
          "name": "ministry",
          "type": "address"
        },
        {
          "indexed": true,
          "internalType": "address",
          "name": "university",
          "type": "address"
        }
      ],
      "name": "UniversityRevoked",
      "type": "event"
    },
    {
      "inputs": [],
      "name": "DEFAULT_ADMIN_ROLE",
      "outputs": [
        {
          "internalType": "bytes32",
          "name": "",
          "type": "bytes32"
        }
      ],
      "stateMutability": "view",
      "type": "function"
    },
    {
      "inputs": [],
      "name": "MINISTRY_ROLE",
      "outputs": [
        {
          "internalType": "bytes32",
          "name": "",
          "type": "bytes32"
        }
      ],
      "stateMutability": "view",
      "type": "function"
    },
    {
      "inputs": [],
      "name": "UNIVERSITY_ROLE",
      "outputs": [
        {
          "internalType": "bytes32",
          "name": "",
          "type": "bytes32"
        }
      ],
      "stateMutability": "view",
      "type": "function"
    },
    {
      "inputs": [
        {
          "internalType": "address",
          "name": "",
          "type": "address"
        },
        {
          "internalType": "uint256",
          "name": "",
          "type": "uint256"
        }
      ],
      "name": "approve",
      "outputs": [],
      "stateMutability": "pure",
      "type": "function"
    },
    {
      "inputs": [
        {
          "internalType": "address",
          "name": "university",
          "type": "address"
        },
        {
          "internalType": "string",
          "name": "name",
          "type": "string"
        }
      ],
      "name": "assignUniversity",
      "outputs": [],
      "stateMutability": "nonpayable",
      "type": "function"
    },
    {
      "inputs": [
        {
          "internalType": "address",
          "name": "owner",
          "type": "address"
        }
      ],
      "name": "balanceOf",
      "outputs": [
        {
          "internalType": "uint256",
          "name": "",
          "type": "uint256"
        }
      ],
      "stateMutability": "view",
      "type": "function"
    },
    {
      "inputs": [
        {
          "internalType": "uint256",
          "name": "tokenId",
          "type": "uint256"
        }
      ],
      "name": "getApproved",
      "outputs": [
        {
          "internalType": "address",
          "name": "",
          "type": "address"
        }
      ],
      "stateMutability": "view",
      "type": "function"
    },
    {
      "inputs": [
        {
          "internalType": "address",
          "name": "student",
          "type": "address"
        }
      ],
      "name": "getDegreeIdsOf",
      "outputs": [
        {
          "internalType": "uint256[]",
          "name": "",
          "type": "uint256[]"
        }
      ],
      "stateMutability": "view",
      "type": "function"
    },
    {
      "inputs": [
        {
          "internalType": "address",
          "name": "student",
          "type": "address"
        }
      ],
      "name": "getDegreesOf",
      "outputs": [
        {
          "components": [
            {
              "internalType": "string",
              "name": "universityName",
              "type": "string"
            },
            {
              "internalType": "string",
              "name": "degreeName",
              "type": "string"
            },
            {
              "internalType": "string",
              "name": "fieldOfStudy",
              "type": "string"
            },
            {
              "internalType": "string",
              "name": "metadataURI",
              "type": "string"
            },
            {
              "internalType": "uint256",
              "name": "issuedAt",
              "type": "uint256"
            },
            {
              "internalType": "address",
              "name": "issuer",
              "type": "address"
            }
          ],
          "internalType": "struct UniversityDegreesSBT.Degree[]",
          "name": "",
          "type": "tuple[]"
        }
      ],
      "stateMutability": "view",
      "type": "function"
    },
    {
      "inputs": [],
      "name": "getMyDegrees",
      "outputs": [
        {
          "components": [
            {
              "internalType": "string",
              "name": "universityName",
              "type": "string"
            },
            {
              "internalType": "string",
              "name": "degreeName",
              "type": "string"
            },
            {
              "internalType": "string",
              "name": "fieldOfStudy",
              "type": "string"
            },
            {
              "internalType": "string",
              "name": "metadataURI",
              "type": "string"
            },
            {
              "internalType": "uint256",
              "name": "issuedAt",
              "type": "uint256"
            },
            {
              "internalType": "address",
              "name": "issuer",
              "type": "address"
            }
          ],
          "internalType": "struct UniversityDegreesSBT.Degree[]",
          "name": "",
          "type": "tuple[]"
        }
      ],
      "stateMutability": "view",
      "type": "function"
    },
    {
      "inputs": [
        {
          "internalType": "bytes32",
          "name": "role",
          "type": "bytes32"
        }
      ],
      "name": "getRoleAdmin",
      "outputs": [
        {
          "internalType": "bytes32",
          "name": "",
          "type": "bytes32"
        }
      ],
      "stateMutability": "view",
      "type": "function"
    },
    {
      "inputs": [
        {
          "internalType": "bytes32",
          "name": "role",
          "type": "bytes32"
        },
        {
          "internalType": "address",
          "name": "account",
          "type": "address"
        }
      ],
      "name": "grantRole",
      "outputs": [],
      "stateMutability": "nonpayable",
      "type": "function"
    },
    {
      "inputs": [
        {
          "internalType": "bytes32",
          "name": "role",
          "type": "bytes32"
        },
        {
          "internalType": "address",
          "name": "account",
          "type": "address"
        }
      ],
      "name": "hasRole",
      "outputs": [
        {
          "internalType": "bool",
          "name": "",
          "type": "bool"
        }
      ],
      "stateMutability": "view",
      "type": "function"
    },
    {
      "inputs": [
        {
          "internalType": "address",
          "name": "owner",
          "type": "address"
        },
        {
          "internalType": "address",
          "name": "operator",
          "type": "address"
        }
      ],
      "name": "isApprovedForAll",
      "outputs": [
        {
          "internalType": "bool",
          "name": "",
          "type": "bool"
        }
      ],
      "stateMutability": "view",
      "type": "function"
    },
    {
      "inputs": [
        {
          "internalType": "address",
          "name": "to",
          "type": "address"
        },
        {
          "internalType": "string",
          "name": "universityName",
          "type": "string"
        },
        {
          "internalType": "string",
          "name": "degreeName",
          "type": "string"
        },
        {
          "internalType": "string",
          "name": "fieldOfStudy",
          "type": "string"
        },
        {
          "internalType": "string",
          "name": "metadataURI",
          "type": "string"
        }
      ],
      "name": "mintDegree",
      "outputs": [
        {
          "internalType": "uint256",
          "name": "",
          "type": "uint256"
        }
      ],
      "stateMutability": "nonpayable",
      "type": "function"
    },
    {
      "inputs": [],
      "name": "name",
      "outputs": [
        {
          "internalType": "string",
          "name": "",
          "type": "string"
        }
      ],
      "stateMutability": "view",
      "type": "function"
    },
    {
      "inputs": [
        {
          "internalType": "uint256",
          "name": "tokenId",
          "type": "uint256"
        }
      ],
      "name": "ownerOf",
      "outputs": [
        {
          "internalType": "address",
          "name": "",
          "type": "address"
        }
      ],
      "stateMutability": "view",
      "type": "function"
    },
    {
      "inputs": [
        {
          "internalType": "bytes32",
          "name": "role",
          "type": "bytes32"
        },
        {
          "internalType": "address",
          "name": "callerConfirmation",
          "type": "address"
        }
      ],
      "name": "renounceRole",
      "outputs": [],
      "stateMutability": "nonpayable",
      "type": "function"
    },
    {
      "inputs": [
        {
          "internalType": "uint256",
          "name": "tokenId",
          "type": "uint256"
        }
      ],
      "name": "revokeDegree",
      "outputs": [],
      "stateMutability": "nonpayable",
      "type": "function"
    },
    {
      "inputs": [
        {
          "internalType": "bytes32",
          "name": "role",
          "type": "bytes32"
        },
        {
          "internalType": "address",
          "name": "account",
          "type": "address"
        }
      ],
      "name": "revokeRole",
      "outputs": [],
      "stateMutability": "nonpayable",
      "type": "function"
    },
    {
      "inputs": [
        {
          "internalType": "address",
          "name": "university",
          "type": "address"
        }
      ],
      "name": "revokeUniversity",
      "outputs": [],
      "stateMutability": "nonpayable",
      "type": "function"
    },
    {
      "inputs": [
        {
          "internalType": "address",
          "name": "from",
          "type": "address"
        },
        {
          "internalType": "address",
          "name": "to",
          "type": "address"
        },
        {
          "internalType": "uint256",
          "name": "tokenId",
          "type": "uint256"
        }
      ],
      "name": "safeTransferFrom",
      "outputs": [],
      "stateMutability": "nonpayable",
      "type": "function"
    },
    {
      "inputs": [
        {
          "internalType": "address",
          "name": "from",
          "type": "address"
        },
        {
          "internalType": "address",
          "name": "to",
          "type": "address"
        },
        {
          "internalType": "uint256",
          "name": "tokenId",
          "type": "uint256"
        },
        {
          "internalType": "bytes",
          "name": "data",
          "type": "bytes"
        }
      ],
      "name": "safeTransferFrom",
      "outputs": [],
      "stateMutability": "nonpayable",
      "type": "function"
    },
    {
      "inputs": [
        {
          "internalType": "address",
          "name": "",
          "type": "address"
        },
        {
          "internalType": "bool",
          "name": "",
          "type": "bool"
        }
      ],
      "name": "setApprovalForAll",
      "outputs": [],
      "stateMutability": "pure",
      "type": "function"
    },
    {
      "inputs": [
        {
          "internalType": "bytes4",
          "name": "interfaceId",
          "type": "bytes4"
        }
      ],
      "name": "supportsInterface",
      "outputs": [
        {
          "internalType": "bool",
          "name": "",
          "type": "bool"
        }
      ],
      "stateMutability": "view",
      "type": "function"
    },
    {
      "inputs": [],
      "name": "symbol",
      "outputs": [
        {
          "internalType": "string",
          "name": "",
          "type": "string"
        }
      ],
      "stateMutability": "view",
      "type": "function"
    },
    {
      "inputs": [
        {
          "internalType": "uint256",
          "name": "tokenId",
          "type": "uint256"
        }
      ],
      "name": "tokenURI",
      "outputs": [
        {
          "internalType": "string",
          "name": "",
          "type": "string"
        }
      ],
      "stateMutability": "view",
      "type": "function"
    },
    {
      "inputs": [
        {
          "internalType": "address",
          "name": "from",
          "type": "address"
        },
        {
          "internalType": "address",
          "name": "to",
          "type": "address"
        },
        {
          "internalType": "uint256",
          "name": "tokenId",
          "type": "uint256"
        }
      ],
      "name": "transferFrom",
      "outputs": [],
      "stateMutability": "nonpayable",
      "type": "function"
    },
    {
      "inputs": [
        {
          "internalType": "address",
          "name": "",
          "type": "address"
        }
      ],
      "name": "universityNames",
      "outputs": [
        {
          "internalType": "string",
          "name": "",
          "type": "string"
        }
      ],
      "stateMutability": "view",
      "type": "function"
    }
  ],
  "bytecode": "0x60806040526001600755348015610014575f5ffd5b506040516125da3803806125da833981016040819052610033916101d9565b81815f61004083826102c2565b50600161004d82826102c2565b5061005c91505f90503361008f565b506100877f3f81692b0a9da63b9daf0b74ba4f4b42d32f274149cfb9f22dc295459fb826eb3361008f565b50505061037c565b5f8281526006602090815260408083206001600160a01b038516845290915281205460ff16610133575f8381526006602090815260408083206001600160a01b03861684529091529020805460ff191660011790556100eb3390565b6001600160a01b0316826001600160a01b0316847f2f8788117e7eff1d82e926ec794901d17c78024a50270940304540a733656f0d60405160405180910390a4506001610136565b505f5b92915050565b634e487b7160e01b5f52604160045260245ffd5b5f82601f83011261015f575f5ffd5b81516001600160401b038111156101785761017861013c565b604051601f8201601f19908116603f011681016001600160401b03811182821017156101a6576101a661013c565b6040528181528382016020018510156101bd575f5ffd5b8160208501602083015e5f918101602001919091529392505050565b5f5f604083850312156101ea575f5ffd5b82516001600160401b038111156101ff575f5ffd5b61020b85828601610150565b602085015190935090506001600160401b03811115610228575f5ffd5b61023485828601610150565b9150509250929050565b600181811c9082168061025257607f821691505b60208210810361027057634e487b7160e01b5f52602260045260245ffd5b50919050565b601f8211156102bd57805f5260205f20601f840160051c8101602085101561029b5750805b601f840160051c820191505b818110156102ba575f81556001016102a7565b50505b505050565b81516001600160401b038111156102db576102db61013c565b6102ef816102e9845461023e565b84610276565b6020601f821160018114610321575f831561030a5750848201515b5f19600385901b1c1916600184901b1784556102ba565b5f84815260208120601f198516915b828110156103505787850151825560209485019460019092019101610330565b508482101561036d57868401515f19600387901b60f8161c191681555b50505050600190811b01905550565b612251806103895f395ff3fe608060405234801561000f575f5ffd5b50600436106101c6575f3560e01c8063559d0c74116100fe578063a3e7e9731161009e578063c87b56dd1161006e578063c87b56dd146103e8578063d547741f146103fb578063e4ee87551461040e578063e985e9c514610421575f5ffd5b8063a3e7e9731461039b578063b269f657146103af578063b722dea1146103c2578063b88d4fde146103d5575f5ffd5b806391d14854116100d957806391d148541461036b57806395d89b411461037e578063a217fddf14610386578063a22cb4651461038d575f5ffd5b8063559d0c74146103325780636352211e1461034557806370a0823114610358575f5ffd5b80632f2ff15d1161016957806342842e0e1161014457806342842e0e146102e457806345d84e65146102f75780634665b79b1461030c5780634851cea51461031f575f5ffd5b80632f2ff15d146102aa57806336568abe146102bd5780633d178414146102d0575f5ffd5b8063095ea7b3116101a4578063095ea7b31461023257806323b872dd14610247578063248a9ca31461025a57806326793ba41461028a575f5ffd5b806301ffc9a7146101ca57806306fdde03146101f2578063081812fc14610207575b5f5ffd5b6101dd6101d8366004611a63565b610434565b60405190151581526020015b60405180910390f35b6101fa610444565b6040516101e99190611ab3565b61021a610215366004611ac5565b6104d3565b6040516001600160a01b0390911681526020016101e9565b610245610240366004611af7565b6104fa565b005b610245610255366004611b1f565b610540565b61027c610268366004611ac5565b5f9081526006602052604090206001015490565b6040519081526020016101e9565b61029d610298366004611b59565b6105c9565b6040516101e99190611b72565b6102456102b8366004611bb4565b61072a565b6102456102cb366004611bb4565b61074e565b61027c5f5160206121dc5f395f51905f5281565b6102456102f2366004611b1f565b610786565b6102ff6107a0565b6040516101e99190611bde565b61024561031a366004611d44565b6107b0565b61024561032d366004611ac5565b61087c565b6102ff610340366004611b59565b610a66565b61021a610353366004611ac5565b610dcf565b61027c610366366004611b59565b610dd9565b6101dd610379366004611bb4565b610e1e565b6101fa610e48565b61027c5f81565b610245610240366004611da2565b61027c5f5160206121fc5f395f51905f5281565b61027c6103bd366004611e20565b610e57565b6101fa6103d0366004611b59565b6110d3565b6102456103e3366004611f00565b61116a565b6101fa6103f6366004611ac5565b611182565b610245610409366004611bb4565b611256565b61024561041c366004611b59565b61127a565b6101dd61042f366004611f77565b611337565b5f61043e82611364565b92915050565b60605f805461045290611f9f565b80601f016020809104026020016040519081016040528092919081815260200182805461047e90611f9f565b80156104c95780601f106104a0576101008083540402835291602001916104c9565b820191905f5260205f20905b8154815290600101906020018083116104ac57829003601f168201915b5050505050905090565b5f6104dd82611388565b505f828152600460205260409020546001600160a01b031661043e565b60405162461bcd60e51b815260206004820152601660248201527514d0950e88185c1c1c9bdd985b08191a5cd8589b195960521b60448201526064015b60405180910390fd5b6001600160a01b03821661056957604051633250574960e11b81525f6004820152602401610537565b5f6105758383336113c0565b9050836001600160a01b0316816001600160a01b0316146105c3576040516364283d7b60e01b81526001600160a01b0380861660048301526024820184905282166044820152606401610537565b50505050565b60606001600160a01b0382166106135760405162461bcd60e51b815260206004820152600f60248201526e696e76616c6964206164647265737360881b6044820152606401610537565b5f61062b5f5160206121fc5f395f51905f5233610e1e565b8061064857506106485f5160206121dc5f395f51905f5233610e1e565b8061065b5750336001600160a01b038416145b9050806106c25760405162461bcd60e51b815260206004820152602f60248201527f6e6f7420617574686f72697a656420746f20766965772064656772656573206660448201526e1bdc881d1a1a5cc81cdd1d59195b9d608a1b6064820152608401610537565b6001600160a01b0383165f908152600960209081526040918290208054835181840281018401909452808452909183018282801561071d57602002820191905f5260205f20905b815481526020019060010190808311610709575b5050505050915050919050565b5f82815260066020526040902060010154610744816114b2565b6105c383836114bf565b6001600160a01b03811633146107775760405163334bd91960e11b815260040160405180910390fd5b6107818282611550565b505050565b61078183838360405180602001604052805f81525061116a565b60606107ab33610a66565b905090565b5f5160206121fc5f395f51905f526107c7816114b2565b6001600160a01b03831661080f5760405162461bcd60e51b815260206004820152600f60248201526e696e76616c6964206164647265737360881b6044820152606401610537565b6108265f5160206121dc5f395f51905f528461072a565b6040516001600160a01b0384169033907ffdb50189351950f393674b5ab5dc64953c1250d2fb4da0547f4bfea7819da06d905f90a36001600160a01b0383165f908152600a602052604090206105c3838261201b565b5f818152600260205260409020546001600160a01b03166108af5760405162461bcd60e51b8152600401610537906120d6565b5f818152600860205260409020600501546001600160a01b03166108e05f5160206121fc5f395f51905f5233610e1e565b806108f35750336001600160a01b038216145b61093f5760405162461bcd60e51b815260206004820152601860248201527f6e6f7420617574686f72697a656420746f207265766f6b6500000000000000006044820152606401610537565b5f61094983610dcf565b6001600160a01b0381165f9081526009602052604081209192505b8154811015610a0557848282815481106109805761098061211d565b905f5260205f200154036109fd578154829061099e90600190612145565b815481106109ae576109ae61211d565b905f5260205f2001548282815481106109c9576109c961211d565b905f5260205f200181905550818054806109e5576109e5612158565b600190038181905f5260205f20015f90559055610a05565b600101610964565b505f84815260086020526040812090610a1e8282611a04565b610a2b600183015f611a04565b610a38600283015f611a04565b610a45600383015f611a04565b505f600482015560050180546001600160a01b03191690556105c3846115bb565b60605f610a72836105c9565b90505f815167ffffffffffffffff811115610a8f57610a8f611cb9565b604051908082528060200260200182016040528015610b0057816020015b610aed6040518060c00160405280606081526020016060815260200160608152602001606081526020015f81526020015f6001600160a01b031681525090565b815260200190600190039081610aad5790505b5090505f5b8251811015610dc75760085f848381518110610b2357610b2361211d565b602002602001015181526020019081526020015f206040518060c00160405290815f82018054610b5290611f9f565b80601f0160208091040260200160405190810160405280929190818152602001828054610b7e90611f9f565b8015610bc95780601f10610ba057610100808354040283529160200191610bc9565b820191905f5260205f20905b815481529060010190602001808311610bac57829003601f168201915b50505050508152602001600182018054610be290611f9f565b80601f0160208091040260200160405190810160405280929190818152602001828054610c0e90611f9f565b8015610c595780601f10610c3057610100808354040283529160200191610c59565b820191905f5260205f20905b815481529060010190602001808311610c3c57829003601f168201915b50505050508152602001600282018054610c7290611f9f565b80601f0160208091040260200160405190810160405280929190818152602001828054610c9e90611f9f565b8015610ce95780601f10610cc057610100808354040283529160200191610ce9565b820191905f5260205f20905b815481529060010190602001808311610ccc57829003601f168201915b50505050508152602001600382018054610d0290611f9f565b80601f0160208091040260200160405190810160405280929190818152602001828054610d2e90611f9f565b8015610d795780601f10610d5057610100808354040283529160200191610d79565b820191905f5260205f20905b815481529060010190602001808311610d5c57829003601f168201915b5050509183525050600482015460208201526005909101546001600160a01b03166040909101528251839083908110610db457610db461211d565b6020908102919091010152600101610b05565b509392505050565b5f61043e82611388565b5f6001600160a01b038216610e03576040516322718ad960e21b81525f6004820152602401610537565b506001600160a01b03165f9081526003602052604090205490565b5f9182526006602090815260408084206001600160a01b0393909316845291905290205460ff1690565b60606001805461045290611f9f565b5f5f5160206121dc5f395f51905f52610e6f816114b2565b6001600160a01b038b16610ec55760405162461bcd60e51b815260206004820152601760248201527f696e76616c69642073747564656e7420616464726573730000000000000000006044820152606401610537565b600780549081905f610ed68361216c565b91905055506040518060c001604052808c8c8080601f0160208091040260200160405190810160405280939291908181526020018383808284375f92019190915250505090825250604080516020601f8d018190048102820181019092528b815291810191908c908c90819084018382808284375f92019190915250505090825250604080516020601f8b0181900481028201810190925289815291810191908a908a90819084018382808284375f92019190915250505090825250604080516020601f8901819004810282018101909252878152918101919088908890819084018382808284375f9201829052509385525050426020808501919091523360409485015285835260089052502081518190610ff2908261201b565b5060208201516001820190611007908261201b565b506040820151600282019061101c908261201b565b5060608201516003820190611031908261201b565b506080820151600482015560a090910151600590910180546001600160a01b0319166001600160a01b039283161790558c165f9081526009602090815260408220805460018101825590835291200181905561108d8c826115f7565b60405133906001600160a01b038e169083907faa0606bdb6d67e12a78a349214b01a28d82721aefb142b7bbd12b4a96f83511c905f90a49b9a5050505050505050505050565b600a6020525f9081526040902080546110eb90611f9f565b80601f016020809104026020016040519081016040528092919081815260200182805461111790611f9f565b80156111625780601f1061113957610100808354040283529160200191611162565b820191905f5260205f20905b81548152906001019060200180831161114557829003601f168201915b505050505081565b611175848484610540565b6105c33385858585611610565b5f818152600260205260409020546060906001600160a01b03166111b85760405162461bcd60e51b8152600401610537906120d6565b5f82815260086020526040902060030180546111d390611f9f565b80601f01602080910402602001604051908101604052809291908181526020018280546111ff90611f9f565b801561124a5780601f106112215761010080835404028352916020019161124a565b820191905f5260205f20905b81548152906001019060200180831161122d57829003601f168201915b50505050509050919050565b5f82815260066020526040902060010154611270816114b2565b6105c38383611550565b5f5160206121fc5f395f51905f52611291816114b2565b6112a85f5160206121dc5f395f51905f5283610e1e565b6112e75760405162461bcd60e51b815260206004820152601060248201526f6e6f74206120756e697665727369747960801b6044820152606401610537565b6112fe5f5160206121dc5f395f51905f5283611256565b6040516001600160a01b0383169033907f972d5d1c266bb830c72032abb78ab887ab119ba1372a89b971247a98ce881ea1905f90a35050565b6001600160a01b039182165f90815260056020908152604080832093909416825291909152205460ff1690565b5f6001600160e01b03198216637965db0b60e01b148061043e575061043e82611738565b5f818152600260205260408120546001600160a01b03168061043e57604051637e27328960e01b815260048101849052602401610537565b5f828152600260205260408120546001600160a01b03908116908316156113ec576113ec818486611787565b6001600160a01b03811615611426576114075f855f5f6117eb565b6001600160a01b0381165f90815260036020526040902080545f190190555b6001600160a01b03851615611454576001600160a01b0385165f908152600360205260409020805460010190555b5f8481526002602052604080822080546001600160a01b0319166001600160a01b0389811691821790925591518793918516917fddf252ad1be2c89b69c2b068fc378daa952ba7f163c4a11628f55a4df523b3ef91a4949350505050565b6114bc81336118ef565b50565b5f6114ca8383610e1e565b611549575f8381526006602090815260408083206001600160a01b03861684529091529020805460ff191660011790556115013390565b6001600160a01b0316826001600160a01b0316847f2f8788117e7eff1d82e926ec794901d17c78024a50270940304540a733656f0d60405160405180910390a450600161043e565b505f61043e565b5f61155b8383610e1e565b15611549575f8381526006602090815260408083206001600160a01b0386168085529252808320805460ff1916905551339286917ff6391f5c32d9c69d2a47ea670b442974b53935d1edc7fd64eb21e047a839171b9190a450600161043e565b5f6115c75f835f6113c0565b90506001600160a01b0381166115f357604051637e27328960e01b815260048101839052602401610537565b5050565b6115f3828260405180602001604052805f815250611928565b6001600160a01b0383163b1561173157604051630a85bd0160e11b81526001600160a01b0384169063150b7a0290611652908890889087908790600401612184565b6020604051808303815f875af192505050801561168c575060408051601f3d908101601f19168201909252611689918101906121c0565b60015b6116f3573d8080156116b9576040519150601f19603f3d011682016040523d82523d5f602084013e6116be565b606091505b5080515f036116eb57604051633250574960e11b81526001600160a01b0385166004820152602401610537565b805160208201fd5b6001600160e01b03198116630a85bd0160e11b1461172f57604051633250574960e11b81526001600160a01b0385166004820152602401610537565b505b5050505050565b5f6001600160e01b031982166380ac58cd60e01b148061176857506001600160e01b03198216635b5e139f60e01b145b8061043e57506301ffc9a760e01b6001600160e01b031983161461043e565b61179283838361193f565b610781576001600160a01b0383166117c057604051637e27328960e01b815260048101829052602401610537565b60405163177e802f60e01b81526001600160a01b038316600482015260248101829052604401610537565b80806117ff57506001600160a01b03821615155b156118c0575f61180e84611388565b90506001600160a01b0383161580159061183a5750826001600160a01b0316816001600160a01b031614155b801561184d575061184b8184611337565b155b156118765760405163a9fbf51f60e01b81526001600160a01b0384166004820152602401610537565b81156118be5783856001600160a01b0316826001600160a01b03167f8c5be1e5ebec7d5bd14f71427d1e84f3dd0314c0f7b2291e5b200ac8c7c3b92560405160405180910390a45b505b50505f90815260046020526040902080546001600160a01b0319166001600160a01b0392909216919091179055565b6118f98282610e1e565b6115f35760405163e2517d3f60e01b81526001600160a01b038216600482015260248101839052604401610537565b61193283836119a3565b610781335f858585611610565b5f6001600160a01b0383161580159061199b5750826001600160a01b0316846001600160a01b0316148061197857506119788484611337565b8061199b57505f828152600460205260409020546001600160a01b038481169116145b949350505050565b6001600160a01b0382166119cc57604051633250574960e11b81525f6004820152602401610537565b5f6119d883835f6113c0565b90506001600160a01b03811615610781576040516339e3563760e11b81525f6004820152602401610537565b508054611a1090611f9f565b5f825580601f10611a1f575050565b601f0160209004905f5260205f20908101906114bc91905b80821115611a4a575f8155600101611a37565b5090565b6001600160e01b0319811681146114bc575f5ffd5b5f60208284031215611a73575f5ffd5b8135611a7e81611a4e565b9392505050565b5f81518084528060208401602086015e5f602082860101526020601f19601f83011685010191505092915050565b602081525f611a7e6020830184611a85565b5f60208284031215611ad5575f5ffd5b5035919050565b80356001600160a01b0381168114611af2575f5ffd5b919050565b5f5f60408385031215611b08575f5ffd5b611b1183611adc565b946020939093013593505050565b5f5f5f60608486031215611b31575f5ffd5b611b3a84611adc565b9250611b4860208501611adc565b929592945050506040919091013590565b5f60208284031215611b69575f5ffd5b611a7e82611adc565b602080825282518282018190525f918401906040840190835b81811015611ba9578351835260209384019390920191600101611b8b565b509095945050505050565b5f5f60408385031215611bc5575f5ffd5b82359150611bd560208401611adc565b90509250929050565b5f602082016020835280845180835260408501915060408160051b8601019250602086015f5b82811015611cad57603f198786030184528151805160c08752611c2a60c0880182611a85565b905060208201518782036020890152611c438282611a85565b91505060408201518782036040890152611c5d8282611a85565b91505060608201518782036060890152611c778282611a85565b608084810151908a015260a0938401516001600160a01b0316939098019290925250506020938401939190910190600101611c04565b50929695505050505050565b634e487b7160e01b5f52604160045260245ffd5b5f5f67ffffffffffffffff841115611ce757611ce7611cb9565b50604051601f19601f85018116603f0116810181811067ffffffffffffffff82111715611d1657611d16611cb9565b604052838152905080828401851015611d2d575f5ffd5b838360208301375f60208583010152509392505050565b5f5f60408385031215611d55575f5ffd5b611d5e83611adc565b9150602083013567ffffffffffffffff811115611d79575f5ffd5b8301601f81018513611d89575f5ffd5b611d9885823560208401611ccd565b9150509250929050565b5f5f60408385031215611db3575f5ffd5b611dbc83611adc565b915060208301358015158114611dd0575f5ffd5b809150509250929050565b5f5f83601f840112611deb575f5ffd5b50813567ffffffffffffffff811115611e02575f5ffd5b602083019150836020828501011115611e19575f5ffd5b9250929050565b5f5f5f5f5f5f5f5f5f60a08a8c031215611e38575f5ffd5b611e418a611adc565b985060208a013567ffffffffffffffff811115611e5c575f5ffd5b611e688c828d01611ddb565b90995097505060408a013567ffffffffffffffff811115611e87575f5ffd5b611e938c828d01611ddb565b90975095505060608a013567ffffffffffffffff811115611eb2575f5ffd5b611ebe8c828d01611ddb565b90955093505060808a013567ffffffffffffffff811115611edd575f5ffd5b611ee98c828d01611ddb565b915080935050809150509295985092959850929598565b5f5f5f5f60808587031215611f13575f5ffd5b611f1c85611adc565b9350611f2a60208601611adc565b925060408501359150606085013567ffffffffffffffff811115611f4c575f5ffd5b8501601f81018713611f5c575f5ffd5b611f6b87823560208401611ccd565b91505092959194509250565b5f5f60408385031215611f88575f5ffd5b611f9183611adc565b9150611bd560208401611adc565b600181811c90821680611fb357607f821691505b602082108103611fd157634e487b7160e01b5f52602260045260245ffd5b50919050565b601f82111561078157805f5260205f20601f840160051c81016020851015611ffc5750805b601f840160051c820191505b81811015611731575f8155600101612008565b815167ffffffffffffffff81111561203557612035611cb9565b612049816120438454611f9f565b84611fd7565b6020601f82116001811461207b575f83156120645750848201515b5f19600385901b1c1916600184901b178455611731565b5f84815260208120601f198516915b828110156120aa578785015182556020948501946001909201910161208a565b50848210156120c757868401515f19600387901b60f8161c191681555b50505050600190811b01905550565b60208082526027908201527f4552433732313a2055524920717565727920666f72206e6f6e6578697374656e6040820152663a103a37b5b2b760c91b606082015260800190565b634e487b7160e01b5f52603260045260245ffd5b634e487b7160e01b5f52601160045260245ffd5b8181038181111561043e5761043e612131565b634e487b7160e01b5f52603160045260245ffd5b5f6001820161217d5761217d612131565b5060010190565b6001600160a01b03858116825284166020820152604081018390526080606082018190525f906121b690830184611a85565b9695505050505050565b5f602082840312156121d0575f5ffd5b8151611a7e81611a4e56fe5bb0bf1fabd5e975fc7a4520766d9e86e0eb281f8c7c44fcd3dfe60a11e786ca3f81692b0a9da63b9daf0b74ba4f4b42d32f274149cfb9f22dc295459fb826eba2646970667358221220d29d8f7f8db2a694b53c1abffb9ee76e754d8a940edb2ba20f56676db94d473664736f6c634300081c0033",
  "linkReferences": {},
  "deployedLinkReferences": {},
  "immutableReferences": {},
  "inputSourceName": "project/contracts/UniversityDegreesSBT.sol",
  "buildInfoId": "solc-0_8_28-17a33648fc8fa576fed8edb293a9c243f5d8683c"
}