{
  "_format": "hh3-artifact-1",
  "contractName": "UniversityDegreesSBT",
  "sourceName": "contracts/UniversityDegreesSBT.sol",
  "abi": [
    {
      "inputs": [
        {
          "internalType": "string",
          "name": "name_",
          "type": "string"
        },
        {
          "internalType": "string",
          "name": "symbol_",
          "type": "string"
        }
      ],
      "stateMutability": "nonpayable",
      "type": "constructor"
    },
    {
      "inputs": [],
      "name": "AccessControlBadConfirmation",
      "type": "error"
    },
    {
      "inputs": [
        {
          "internalType": "address",
          "name": "account",
          "type": "address"
        },
        {
          "internalType": "bytes32",
          "name": "neededRole",
          "type": "bytes32"
        }
      ],
      "name": "AccessControlUnauthorizedAccount",
      "type": "error"
    },
    {
      "inputs": [
        {
          "internalType": "address",
          "name": "sender",
          "type": "address"
        },
        {
          "internalType": "uint256",
          "name": "tokenId",
          "type": "uint256"
        },
        {
          "internalType": "address",
          "name": "owner",
          "type": "address"
        }
      ],
      "name": "ERC721IncorrectOwner",
      "type": "error"
    },
    {
      "inputs": [
        {
          "internalType": "address",
          "name": "operator",
          "type": "address"
        },
        {
          "internalType": "uint256",
          "name": "tokenId",
          "type": "uint256"
        }
      ],
      "name": "ERC721InsufficientApproval",
      "type": "error"
    },
    {
      "inputs": [
        {
          "internalType": "address",
          "name": "approver",
          "type": "address"
        }
      ],
      "name": "ERC721InvalidApprover",
      "type": "error"
    },
    {
      "inputs": [
        {
          "internalType": "address",
          "name": "operator",
          "type": "address"
        }
      ],
      "name": "ERC721InvalidOperator",
      "type": "error"
    },
    {
      "inputs": [
        {
          "internalType": "address",
          "name": "owner",
          "type": "address"
        }
      ],
      "name": "ERC721InvalidOwner",
      "type": "error"
    },
    {
      "inputs": [
        {
          "internalType": "address",
          "name": "receiver",
          "type": "address"
        }
      ],
      "name": "ERC721InvalidReceiver",
      "type": "error"
    },
    {
      "inputs": [
        {
          "internalType": "address",
          "name": "sender",
          "type": "address"
        }
      ],
      "name": "ERC721InvalidSender",
      "type": "error"
    },
    {
      "inputs": [
        {
          "internalType": "uint256",
          "name": "tokenId",
          "type": "uint256"
        }
      ],
      "name": "ERC721NonexistentToken",
      "type": "error"
    },
    {
      "anonymous": false,
      "inputs": [
        {
          "indexed": true,
          "internalType": "address",
          "name": "owner",
          "type": "address"
        },
        {
          "indexed": true,
          "internalType": "address",
          "name": "approved",
          "type": "address"
        },
        {
          "indexed": true,
          "internalType": "uint256",
          "name": "tokenId",
          "type": "uint256"
        }
      ],
      "name": "Approval",
      "type": "event"
    },
    {
      "anonymous": false,
      "inputs": [
        {
          "indexed": true,
          "internalType": "address",
          "name": "owner",
          "type": "address"
        },
        {
          "indexed": true,
          "internalType": "address",
          "name": "operator",
          "type": "address"
        },
        {
          "indexed": false,
          "internalType": "bool",
          "name": "approved",
          "type": "bool"
        }
      ],
      "name": "ApprovalForAll",
      "type": "event"
    },
    {
      "anonymous": false,
      "inputs": [
        {
          "indexed": true,
          "internalType": "uint256",
          "name": "tokenId",
          "type": "uint256"
        },
        {
          "indexed": true,
          "internalType": "address",
          "name": "to",
          "type": "address"
        },
        {
          "indexed": true,
          "internalType": "address",
          "name": "issuer",
          "type": "address"
        }
      ],
      "name": "DegreeIssued",
      "type": "event"
    },
    {
      "anonymous": false,
      "inputs": [
        {
          "indexed": true,
          "internalType": "uint256",
          "name": "snapshotId",
          "type": "uint256"
        },
        {
          "indexed": false,
          "internalType": "uint256",
          "name": "totalDegrees",
          "type": "uint256"
        },
        {
          "indexed": false,
          "internalType": "uint256",
          "name": "timestamp",
          "type": "uint256"
        }
      ],
      "name": "StateSnapshot",
      "type": "event"
    },
    {
      "anonymous": false,
      "inputs": [
        {
          "indexed": true,
          "internalType": "bytes32",
          "name": "role",
          "type": "bytes32"
        },
        {
          "indexed": true,
          "internalType": "bytes32",
          "name": "previousAdminRole",
          "type": "bytes32"
        },
        {
          "indexed": true,
          "internalType": "bytes32",
          "name": "newAdminRole",
          "type": "bytes32"
        }
      ],
      "name": "RoleAdminChanged",
      "type": "event"
    },
    {
      "anonymous": false,
      "inputs": [
        {
          "indexed": true,
          "internalType": "bytes32",
          "name": "role",
          "type": "bytes32"
        },
        {
          "indexed": true,
          "internalType": "address",
          "name": "account",
          "type": "address"
        },
        {
          "indexed": true,
          "internalType": "address",
          "name": "sender",
          "type": "address"
        }
      ],
      "name": "RoleGranted",
      "type": "event"
    },
    {
      "anonymous": false,
      "inputs": [
        {
          "indexed": true,
          "internalType": "bytes32",
          "name": "role",
          "type": "bytes32"
        },
        {
          "indexed": true,
          "internalType": "address",
          "name": "account",
          "type": "address"
        },
        {
          "indexed": true,
          "internalType": "address",
          "name": "sender",
          "type": "address"
        }
      ],
      "name": "RoleRevoked",
      "type": "event"
    },
    {
      "anonymous": false,
      "inputs": [
        {
          "indexed": true,
          "internalType": "address",
          "name": "from",
          "type": "address"
        },
        {
          "indexed": true,
          "internalType": "address",
          "name": "to",
          "type": "address"
        },
        {
          "indexed": true,
          "internalType": "uint256",
          "name": "tokenId",
          "type": "uint256"
        }
      ],
      "name": "Transfer",
      "type": "event"
    },
    {
      "anonymous": false,
      "inputs": [
        {
          "indexed": true,
          "internalType": "address",
          "name": "ministry",
          "type": "address"
        },
        {
          "indexed": true,
          "internalType": "address",
          "name": "university",
          "type": "address"
        }
      ],
      "name": "UniversityAssigned",
      "type": "event"
    },
    {
      "anonymous": false,
      "inputs": [
        {
          "indexed": true,
          "internalType": "address",
          "name": "ministry",
          "type": "address"
        },
        {
          "indexed": true,
          "internalType": "address",
          "name": "university",
          "type": "address"
        }
      ],
      "name": "UniversityRevoked",
      "type": "event"
    },
    {
      "inputs": [],
      "name": "DEFAULT_ADMIN_ROLE",
      "outputs": [
        {
          "internalType": "bytes32",
          "name": "",
          "type": "bytes32"
        }
      ],
      "stateMutability": "view",
      "type": "function"
    },
    {
      "inputs": [],
      "name": "MINISTRY_ROLE",
      "outputs": [
        {
          "internalType": "bytes32",
          "name": "",
          "type": "bytes32"
        }
      ],
      "stateMutability": "view",
      "type": "function"
    },
    {
      "inputs": [],
      "name": "UNIVERSITY_ROLE",
      "outputs": [
        {
          "internalType": "bytes32",
          "name": "",
          "type": "bytes32"
        }
      ],
      "stateMutability": "view",
      "type": "function"
    },
    {
      "inputs": [
        {
          "internalType": "address",
          "name": "",
          "type": "address"
        },
        {
          "internalType": "uint256",
          "name": "",
          "type": "uint256"
        }
      ],
      "name": "approve",
      "outputs": [],
      "stateMutability": "pure",
      "type": "function"
    },
    {
      "inputs": [
        {
          "internalType": "address",
          "name": "university",
          "type": "address"
        },
        {
          "internalType": "string",
          "name": "name",
          "type": "string"
        }
      ],
      "name": "assignUniversity",
      "outputs": [],
      "stateMutability": "nonpayable",
      "type": "function"
    },
    {
      "inputs": [
        {
          "internalType": "address",
          "name": "owner",
          "type": "address"
        }
      ],
      "name": "balanceOf",
      "outputs": [
        {
          "internalType": "uint256",
          "name": "",
          "type": "uint256"
        }
      ],
      "stateMutability": "view",
      "type": "function"
    },
    {
      "inputs": [
        {
          "internalType": "uint256",
          "name": "tokenId",
          "type": "uint256"
        }
      ],
      "name": "getApproved",
      "outputs": [
        {
          "internalType": "address",
          "name": "",
          "type": "address"
        }
      ],
      "stateMutability": "view",
      "type": "function"
    },
    {
      "inputs": [
        {
          "internalType": "address",
          "name": "student",
          "type": "address"
        }
      ],
      "name": "getDegreeIdsOf",
      "outputs": [
        {
          "internalType": "uint256[]",
          "name": "",
          "type": "uint256[]"
        }
      ],
      "stateMutability": "view",
      "type": "function"
    },
    {
      "inputs": [
        {
          "internalType": "address",
          "name": "student",
          "type": "address"
        }
      ],
      "name": "getDegreesOf",
      "outputs": [
        {
          "components": [
            {
              "internalType": "string",
              "name": "universityName",
              "type": "string"
            },
            {
              "internalType": "string",
              "name": "degreeName",
              "type": "string"
            },
            {
              "internalType": "string",
              "name": "fieldOfStudy",
              "type": "string"
            },
            {
              "internalType": "string",
              "name": "metadataURI",
              "type": "string"
            },
            {
              "internalType": "uint256",
              "name": "issuedAt",
              "type": "uint256"
            },
            {
              "internalType": "address",
              "name": "issuer",
              "type": "address"
            }
          ],
          "internalType": "struct UniversityDegreesSBT.Degree[]",
          "name": "",
          "type": "tuple[]"
        }
      ],
      "stateMutability": "view",
      "type": "function"
    },
    {
      "inputs": [],
      "name": "getMyDegrees",
      "outputs": [
        {
          "components": [
            {
              "internalType": "string",
              "name": "universityName",
              "type": "string"
            },
            {
              "internalType": "string",
              "name": "degreeName",
              "type": "string"
            },
            {
              "internalType": "string",
              "name": "fieldOfStudy",
              "type": "string"
            },
            {
              "internalType": "string",
              "name": "metadataURI",
              "type": "string"
            },
            {
              "internalType": "uint256",
              "name": "issuedAt",
              "type": "uint256"
            },
            {
              "internalType": "address",
              "name": "issuer",
              "type": "address"
            }
          ],
          "internalType": "struct UniversityDegreesSBT.Degree[]",
          "name": "",
          "type": "tuple[]"
        }
      ],
      "stateMutability": "view",
      "type": "function"
    },
    {
      "inputs": [
        {
          "internalType": "bytes32",
          "name": "role",
          "type": "bytes32"
        }
      ],
      "name": "getRoleAdmin",
      "outputs": [
        {
          "internalType": "bytes32",
          "name": "",
          "type": "bytes32"
        }
      ],
      "stateMutability": "view",
      "type": "function"
    },
    {
      "inputs": [
        {
          "internalType": "bytes32",
          "name": "role",
          "type": "bytes32"
        },
        {
          "internalType": "address",
          "name": "account",
          "type": "address"
        }
      ],
      "name": "grantRole",
      "outputs": [],
      "stateMutability": "nonpayable",
      "type": "function"
    },
    {
      "inputs": [
        {
          "internalType": "bytes32",
          "name": "role",
          "type": "bytes32"
        },
        {
          "internalType": "address",
          "name": "account",
          "type": "address"
        }
      ],
      "name": "hasRole",
      "outputs": [
        {
          "internalType": "bool",
          "name": "",
          "type": "bool"
        }
      ],
      "stateMutability": "view",
      "type": "function"
    },
    {
      "inputs": [
        {
          "internalType": "address",
          "name": "owner",
          "type": "address"
        },
        {
          "internalType": "address",
          "name": "operator",
          "type": "address"
        }
      ],
      "name": "isApprovedForAll",
      "outputs": [
        {
          "internalType": "bool",
          "name": "",
          "type": "bool"
        }
      ],
      "stateMutability": "view",
      "type": "function"
    },
    {
      "inputs": [
        {
          "internalType": "address",
          "name": "to",
          "type": "address"
        },
        {
          "internalType": "string",
          "name": "universityName",
          "type": "string"
        },
        {
          "internalType": "string",
          "name": "degreeName",
          "type": "string"
        },
        {
          "internalType": "string",
          "name": "fieldOfStudy",
          "type": "string"
        },
        {
          "internalType": "string",
          "name": "metadataURI",
          "type": "string"
        }
      ],
      "name": "mintDegree",
      "outputs": [
        {
          "internalType": "uint256",
          "name": "",
          "type": "uint256"
        }
      ],
      "stateMutability": "nonpayable",
      "type": "function"
    },
    {
      "inputs": [],
      "name": "name",
      "outputs": [
        {
          "internalType": "string",
          "name": "",
          "type": "string"
        }
      ],
      "stateMutability": "view",
      "type": "function"
    },
    {
      "inputs": [
        {
          "internalType": "uint256",
          "name": "tokenId",
          "type": "uint256"
        }
      ],
      "name": "ownerOf",
      "outputs": [
        {
          "internalType": "address",
          "name": "",
          "type": "address"
        }
      ],
      "stateMutability": "view",
      "type": "function"
    },
    {
      "inputs": [
        {
          "internalType": "bytes32",
          "name": "role",
          "type": "bytes32"
        },
        {
          "internalType": "address",
          "name": "callerConfirmation",
          "type": "address"
        }
      ],
      "name": "renounceRole",
      "outputs": [],
      "stateMutability": "nonpayable",
      "type": "function"
    },
    {
      "inputs": [
        {
          "internalType": "uint256",
          "name": "tokenId",
          "type": "uint256"
        }
      ],
      "name": "revokeDegree",
      "outputs": [],
      "stateMutability": "nonpayable",
      "type": "function"
    },
    {
      "inputs": [
        {
          "internalType": "bytes32",
          "name": "role",
          "type": "bytes32"
        },
        {
          "internalType": "address",
          "name": "account",
          "type": "address"
        }
      ],
      "name": "revokeRole",
      "outputs": [],
      "stateMutability": "nonpayable",
      "type": "function"
    },
    {
      "inputs": [
        {
          "internalType": "address",
          "name": "university",
          "type": "address"
        }
      ],
      "name": "revokeUniversity",
      "outputs": [],
      "stateMutability": "nonpayable",
      "type": "function"
    },
    {
      "inputs": [],
      "name": "createSnapshot",
      "outputs": [],
      "stateMutability": "nonpayable",
      "type": "function"
    },
    {
      "inputs": [
        {
          "internalType": "address",
          "name": "from",
          "type": "address"
        },
        {
          "internalType": "address",
          "name": "to",
          "type": "address"
        },
        {
          "internalType": "uint256",
          "name": "tokenId",
          "type": "uint256"
        }
      ],
      "name": "safeTransferFrom",
      "outputs": [],
      "stateMutability": "nonpayable",
      "type": "function"
    },
    {
      "inputs": [
        {
          "internalType": "address",
          "name": "from",
          "type": "address"
        },
        {
          "internalType": "address",
          "name": "to",
          "type": "address"
        },
        {
          "internalType": "uint256",
          "name": "tokenId",
          "type": "uint256"
        },
        {
          "internalType": "bytes",
          "name": "data",
          "type": "bytes"
        }
      ],
      "name": "safeTransferFrom",
      "outputs": [],
      "stateMutability": "nonpayable",
      "type": "function"
    },
    {
      "inputs": [
        {
          "internalType": "address",
          "name": "",
          "type": "address"
        },
        {
          "internalType": "bool",
          "name": "",
          "type": "bool"
        }
      ],
      "name": "setApprovalForAll",
      "outputs": [],
      "stateMutability": "pure",
      "type": "function"
    },
    {
      "inputs": [
        {
          "internalType": "bytes4",
          "name": "interfaceId",
          "type": "bytes4"
        }
      ],
      "name": "supportsInterface",
      "outputs": [
        {
          "internalType": "bool",
          "name": "",
          "type": "bool"
        }
      ],
      "stateMutability": "view",
      "type": "function"
    },
    {
      "inputs": [],
      "name": "symbol",
      "outputs": [
        {
          "internalType": "string",
          "name": "",
          "type": "string"
        }
      ],
      "stateMutability": "view",
      "type": "function"
    },
    {
      "inputs": [
        {
          "internalType": "uint256",
          "name": "tokenId",
          "type": "uint256"
        }
      ],
      "name": "tokenURI",
      "outputs": [
        {
          "internalType": "string",
          "name": "",
          "type": "string"
        }
      ],
      "stateMutability": "view",
      "type": "function"
    },
    {
      "inputs": [
        {
          "internalType": "address",
          "name": "from",
          "type": "address"
        },
        {
          "internalType": "address",
          "name": "to",
          "type": "address"
        },
        {
          "internalType": "uint256",
          "name": "tokenId",
          "type": "uint256"
        }
      ],
      "name": "transferFrom",
      "outputs": [],
      "stateMutability": "nonpayable",
      "type": "function"
    },
    {
      "inputs": [
        {
          "internalType": "address",
          "name": "",
          "type": "address"
        }
      ],
      "name": "universityNames",
      "outputs": [
        {
          "internalType": "string",
          "name": "",
          "type": "string"
        }
      ],
      "stateMutability": "view",
      "type": "function"
    }
  ],
  "bytecode": "0x60806040526001600755348015610014575f5ffd5b5060405161448938038061448983398181016040528101906100369190610352565b8181815f908161004691906105d8565b50806001908161005691906105d8565b50505061006b5f5f1b336100a460201b60201c565b5061009c7f3f81692b0a9da63b9daf0b74ba4f4b42d32f274149cfb9f22dc295459fb826eb336100a460201b60201c565b5050506106a7565b5f6100b5838361019a60201b60201c565b61019057600160065f8581526020019081526020015f205f015f8473ffffffffffffffffffffffffffffffffffffffff1673ffffffffffffffffffffffffffffffffffffffff1681526020019081526020015f205f6101000a81548160ff02191690831515021790555061012d6101fe60201b60201c565b73ffffffffffffffffffffffffffffffffffffffff168273ffffffffffffffffffffffffffffffffffffffff16847f2f8788117e7eff1d82e926ec794901d17c78024a50270940304540a733656f0d60405160405180910390a460019050610194565b5f90505b92915050565b5f60065f8481526020019081526020015f205f015f8373ffffffffffffffffffffffffffffffffffffffff1673ffffffffffffffffffffffffffffffffffffffff1681526020019081526020015f205f9054906101000a900460ff16905092915050565b5f33905090565b5f604051905090565b5f5ffd5b5f5ffd5b5f5ffd5b5f5ffd5b5f601f19601f8301169050919050565b7f4e487b71000000000000000000000000000000000000000000000000000000005f52604160045260245ffd5b6102648261021e565b810181811067ffffffffffffffff821117156102835761028261022e565b5b80604052505050565b5f610295610205565b90506102a1828261025b565b919050565b5f67ffffffffffffffff8211156102c0576102bf61022e565b5b6102c98261021e565b9050602081019050919050565b8281835e5f83830152505050565b5f6102f66102f1846102a6565b61028c565b9050828152602081018484840111156103125761031161021a565b5b61031d8482856102d6565b509392505050565b5f82601f83011261033957610338610216565b5b81516103498482602086016102e4565b91505092915050565b5f5f604083850312156103685761036761020e565b5b5f83015167ffffffffffffffff81111561038557610384610212565b5b61039185828601610325565b925050602083015167ffffffffffffffff8111156103b2576103b1610212565b5b6103be85828601610325565b9150509250929050565b5f81519050919050565b7f4e487b71000000000000000000000000000000000000000000000000000000005f52602260045260245ffd5b5f600282049050600182168061041657607f821691505b602082108103610429576104286103d2565b5b50919050565b5f819050815f5260205f209050919050565b5f6020601f8301049050919050565b5f82821b905092915050565b5f6008830261048b7fffffffffffffffffffffffffffffffffffffffffffffffffffffffffffffffff82610450565b6104958683610450565b95508019841693508086168417925050509392505050565b5f819050919050565b5f819050919050565b5f6104d96104d46104cf846104ad565b6104b6565b6104ad565b9050919050565b5f819050919050565b6104f2836104bf565b6105066104fe826104e0565b84845461045c565b825550505050565b5f5f905090565b61051d61050e565b6105288184846104e9565b505050565b5b8181101561054b576105405f82610515565b60018101905061052e565b5050565b601f821115610590576105618161042f565b61056a84610441565b81016020851015610579578190505b61058d61058585610441565b83018261052d565b50505b505050565b5f82821c905092915050565b5f6105b05f1984600802610595565b1980831691505092915050565b5f6105c883836105a1565b9150826002028217905092915050565b6105e1826103c8565b67ffffffffffffffff8111156105fa576105f961022e565b5b61060482546103ff565b61060f82828561054f565b5f60209050601f831160018114610640575f841561062e578287015190505b61063885826105bd565b86555061069f565b601f19841661064e8661042f565b5f5b8281101561067557848901518255600182019150602085019450602081019050610650565b86831015610692578489015161068e601f8916826105a1565b8355505b6001600288020188555050505b505050505050565b613dd5806106b45f395ff3fe608060405234801561000f575f5ffd5b50600436106101cd575f3560e01c8063559d0c7411610102578063a3e7e973116100a0578063c87b56dd1161006f578063c87b56dd14610561578063d547741f14610591578063e4ee8755146105ad578063e985e9c5146105c9576101cd565b8063a3e7e973146104c7578063b269f657146104e5578063b722dea114610515578063b88d4fde14610545576101cd565b806391d14854116100dc57806391d148541461043f57806395d89b411461046f578063a217fddf1461048d578063a22cb465146104ab576101cd565b8063559d0c74146103af5780636352211e146103df57806370a082311461040f576101cd565b80632f2ff15d1161016f57806342842e0e1161014957806342842e0e1461033d57806345d84e65146103595780634665b79b146103775780634851cea514610393576101cd565b80632f2ff15d146102e757806336568abe146103035780633d1784141461031f576101cd565b8063095ea7b3116101ab578063095ea7b31461024f57806323b872dd1461026b578063248a9ca31461028757806326793ba4146102b7576101cd565b806301ffc9a7146101d157806306fdde0314610201578063081812fc1461021f575b5f5ffd5b6101eb60048036038101906101e69190612a9c565b6105f9565b6040516101f89190612ae1565b60405180910390f35b61020961060a565b6040516102169190612b6a565b60405180910390f35b61023960048036038101906102349190612bbd565b610699565b6040516102469190612c27565b60405180910390f35b61026960048036038101906102649190612c6a565b6106b4565b005b61028560048036038101906102809190612ca8565b6106ef565b005b6102a1600480360381019061029c9190612d2b565b6107ee565b6040516102ae9190612d65565b60405180910390f35b6102d160048036038101906102cc9190612d7e565b61080b565b6040516102de9190612e60565b60405180910390f35b61030160048036038101906102fc9190612e80565b6109e1565b005b61031d60048036038101906103189190612e80565b610a03565b005b610327610a7e565b6040516103349190612d65565b60405180910390f35b61035760048036038101906103529190612ca8565b610aa2565b005b610361610ac1565b60405161036e919061306b565b60405180910390f35b610391600480360381019061038c91906131b7565b610ad1565b005b6103ad60048036038101906103a89190612bbd565b610c3d565b005b6103c960048036038101906103c49190612d7e565b610f13565b6040516103d6919061306b565b60405180910390f35b6103f960048036038101906103f49190612bbd565b61128f565b6040516104069190612c27565b60405180910390f35b61042960048036038101906104249190612d7e565b6112a0565b6040516104369190613220565b60405180910390f35b61045960048036038101906104549190612e80565b611356565b6040516104669190612ae1565b60405180910390f35b6104776113ba565b6040516104849190612b6a565b60405180910390f35b61049561144a565b6040516104a29190612d65565b60405180910390f35b6104c560048036038101906104c09190613263565b611450565b005b6104cf61148b565b6040516104dc9190612d65565b60405180910390f35b6104ff60048036038101906104fa91906132fe565b6114af565b60405161050c9190613220565b60405180910390f35b61052f600480360381019061052a9190612d7e565b611846565b60405161053c9190612b6a565b60405180910390f35b61055f600480360381019061055a9190613492565b6118e1565b005b61057b60048036038101906105769190612bbd565b611906565b6040516105889190612b6a565b60405180910390f35b6105ab60048036038101906105a69190612e80565b611a20565b005b6105c760048036038101906105c29190612d7e565b611a42565b005b6105e360048036038101906105de9190613512565b611b5d565b6040516105f09190612ae1565b60405180910390f35b5f61060382611beb565b9050919050565b60605f80546106189061357d565b80601f01602080910402602001604051908101604052809291908181526020018280546106449061357d565b801561068f5780601f106106665761010080835404028352916020019161068f565b820191905f5260205f20905b81548152906001019060200180831161067257829003601f168201915b5050505050905090565b5f6106a382611c64565b506106ad82611cea565b9050919050565b6040517f08c379a00000000000000000000000000000000000000000000000000000000081526004016106e6906135f7565b60405180910390fd5b5f73ffffffffffffffffffffffffffffffffffffffff168273ffffffffffffffffffffffffffffffffffffffff160361075f575f6040517f64a0ae920000000000000000000000000000000000000000000000000000000081526004016107569190612c27565b60405180910390fd5b5f610772838361076d611d23565b611d2a565b90508373ffffffffffffffffffffffffffffffffffffffff168173ffffffffffffffffffffffffffffffffffffffff16146107e8578382826040517f64283d7b0000000000000000000000000000000000000000000000000000000081526004016107df93929190613615565b60405180910390fd5b50505050565b5f60065f8381526020019081526020015f20600101549050919050565b60605f73ffffffffffffffffffffffffffffffffffffffff168273ffffffffffffffffffffffffffffffffffffffff160361087b576040517f08c379a000000000000000000000000000000000000000000000000000000000815260040161087290613694565b60405180910390fd5b5f6108a67f3f81692b0a9da63b9daf0b74ba4f4b42d32f274149cfb9f22dc295459fb826eb33611356565b806108d757506108d67f5bb0bf1fabd5e975fc7a4520766d9e86e0eb281f8c7c44fcd3dfe60a11e786ca33611356565b5b8061090d57508273ffffffffffffffffffffffffffffffffffffffff163373ffffffffffffffffffffffffffffffffffffffff16145b90508061094f576040517f08c379a000000000000000000000000000000000000000000000000000000000815260040161094690613722565b60405180910390fd5b60095f8473ffffffffffffffffffffffffffffffffffffffff1673ffffffffffffffffffffffffffffffffffffffff1681526020019081526020015f208054806020026020016040519081016040528092919081815260200182805480156109d457602002820191905f5260205f20905b8154815260200190600101908083116109c0575b5050505050915050919050565b6109ea826107ee565b6109f381611f35565b6109fd8383611f49565b50505050565b610a0b611d23565b73ffffffffffffffffffffffffffffffffffffffff168173ffffffffffffffffffffffffffffffffffffffff1614610a6f576040517f6697b23200000000000000000000000000000000000000000000000000000000815260040160405180910390fd5b610a798282612033565b505050565b7f5bb0bf1fabd5e975fc7a4520766d9e86e0eb281f8c7c44fcd3dfe60a11e786ca81565b610abc83838360405180602001604052805f8152506118e1565b505050565b6060610acc33610f13565b905090565b7f3f81692b0a9da63b9daf0b74ba4f4b42d32f274149cfb9f22dc295459fb826eb610afb81611f35565b5f73ffffffffffffffffffffffffffffffffffffffff168373ffffffffffffffffffffffffffffffffffffffff1603610b69576040517f08c379a0000000000000000000000000000000000000000000000000000000008152600401610b6090613694565b60405180910390fd5b610b937f5bb0bf1fabd5e975fc7a4520766d9e86e0eb281f8c7c44fcd3dfe60a11e786ca846109e1565b8273ffffffffffffffffffffffffffffffffffffffff163373ffffffffffffffffffffffffffffffffffffffff167ffdb50189351950f393674b5ab5dc64953c1250d2fb4da0547f4bfea7819da06d60405160405180910390a381600a5f8573ffffffffffffffffffffffffffffffffffffffff1673ffffffffffffffffffffffffffffffffffffffff1681526020019081526020015f209081610c3791906138e0565b50505050565b5f73ffffffffffffffffffffffffffffffffffffffff16610c5d8261211d565b73ffffffffffffffffffffffffffffffffffffffff1603610cb3576040517f08c379a0000000000000000000000000000000000000000000000000000000008152600401610caa90613a1f565b60405180910390fd5b5f60085f8381526020019081526020015f206005015f9054906101000a900473ffffffffffffffffffffffffffffffffffffffff169050610d147f3f81692b0a9da63b9daf0b74ba4f4b42d32f274149cfb9f22dc295459fb826eb33611356565b80610d4a57508073ffffffffffffffffffffffffffffffffffffffff163373ffffffffffffffffffffffffffffffffffffffff16145b610d89576040517f08c379a0000000000000000000000000000000000000000000000000000000008152600401610d8090613a87565b60405180910390fd5b5f610d938361128f565b90505f60095f8373ffffffffffffffffffffffffffffffffffffffff1673ffffffffffffffffffffffffffffffffffffffff1681526020019081526020015f2090505f5f90505b8180549050811015610e875784828281548110610dfa57610df9613aa5565b5b905f5260205f20015403610e7c578160018380549050610e1a9190613aff565b81548110610e2b57610e2a613aa5565b5b905f5260205f200154828281548110610e4757610e46613aa5565b5b905f5260205f20018190555081805480610e6457610e63613b32565b5b600190038181905f5260205f20015f90559055610e87565b806001019050610dda565b5060085f8581526020019081526020015f205f5f82015f610ea89190612994565b600182015f610eb79190612994565b600282015f610ec69190612994565b600382015f610ed59190612994565b600482015f9055600582015f6101000a81549073ffffffffffffffffffffffffffffffffffffffff02191690555050610f0d84612156565b50505050565b60605f610f1f8361080b565b90505f815167ffffffffffffffff811115610f3d57610f3c613093565b5b604051908082528060200260200182016040528015610f7657816020015b610f636129d1565b815260200190600190039081610f5b5790505b5090505f5f90505b82518110156112845760085f848381518110610f9d57610f9c613aa5565b5b602002602001015181526020019081526020015f206040518060c00160405290815f82018054610fcc9061357d565b80601f0160208091040260200160405190810160405280929190818152602001828054610ff89061357d565b80156110435780601f1061101a57610100808354040283529160200191611043565b820191905f5260205f20905b81548152906001019060200180831161102657829003601f168201915b5050505050815260200160018201805461105c9061357d565b80601f01602080910402602001604051908101604052809291908181526020018280546110889061357d565b80156110d35780601f106110aa576101008083540402835291602001916110d3565b820191905f5260205f20905b8154815290600101906020018083116110b657829003601f168201915b505050505081526020016002820180546110ec9061357d565b80601f01602080910402602001604051908101604052809291908181526020018280546111189061357d565b80156111635780601f1061113a57610100808354040283529160200191611163565b820191905f5260205f20905b81548152906001019060200180831161114657829003601f168201915b5050505050815260200160038201805461117c9061357d565b80601f01602080910402602001604051908101604052809291908181526020018280546111a89061357d565b80156111f35780601f106111ca576101008083540402835291602001916111f3565b820191905f5260205f20905b8154815290600101906020018083116111d657829003601f168201915b5050505050815260200160048201548152602001600582015f9054906101000a900473ffffffffffffffffffffffffffffffffffffffff1673ffffffffffffffffffffffffffffffffffffffff1673ffffffffffffffffffffffffffffffffffffffff168152505082828151811061126e5761126d613aa5565b5b6020026020010181905250806001019050610f7e565b508092505050919050565b5f61129982611c64565b9050919050565b5f5f73ffffffffffffffffffffffffffffffffffffffff168273ffffffffffffffffffffffffffffffffffffffff1603611311575f6040517f89c62b640000000000000000000000000000000000000000000000000000000081526004016113089190612c27565b60405180910390fd5b60035f8373ffffffffffffffffffffffffffffffffffffffff1673ffffffffffffffffffffffffffffffffffffffff1681526020019081526020015f20549050919050565b5f60065f8481526020019081526020015f205f015f8373ffffffffffffffffffffffffffffffffffffffff1673ffffffffffffffffffffffffffffffffffffffff1681526020019081526020015f205f9054906101000a900460ff16905092915050565b6060600180546113c99061357d565b80601f01602080910402602001604051908101604052809291908181526020018280546113f59061357d565b80156114405780601f1061141757610100808354040283529160200191611440565b820191905f5260205f20905b81548152906001019060200180831161142357829003601f168201915b5050505050905090565b5f5f1b81565b6040517f08c379a0000000000000000000000000000000000000000000000000000000008152600401611482906135f7565b60405180910390fd5b7f3f81692b0a9da63b9daf0b74ba4f4b42d32f274149cfb9f22dc295459fb826eb81565b5f7f5bb0bf1fabd5e975fc7a4520766d9e86e0eb281f8c7c44fcd3dfe60a11e786ca6114da81611f35565b5f73ffffffffffffffffffffffffffffffffffffffff168b73ffffffffffffffffffffffffffffffffffffffff1603611548576040517f08c379a000000000000000000000000000000000000000000000000000000000815260040161153f90613ba9565b60405180910390fd5b5f600754905060075f81548092919061156090613bc7565b91905055506040518060c001604052808c8c8080601f0160208091040260200160405190810160405280939291908181526020018383808284375f81840152601f19601f8201169050808301925050505050505081526020018a8a8080601f0160208091040260200160405190810160405280939291908181526020018383808284375f81840152601f19601f82011690508083019250505050505050815260200188888080601f0160208091040260200160405190810160405280939291908181526020018383808284375f81840152601f19601f82011690508083019250505050505050815260200186868080601f0160208091040260200160405190810160405280939291908181526020018383808284375f81840152601f19601f8201169050808301925050505050505081526020014281526020013373ffffffffffffffffffffffffffffffffffffffff1681525060085f8381526020019081526020015f205f820151815f0190816116d891906138e0565b5060208201518160010190816116ee91906138e0565b50604082015181600201908161170491906138e0565b50606082015181600301908161171a91906138e0565b506080820151816004015560a0820151816005015f6101000a81548173ffffffffffffffffffffffffffffffffffffffff021916908373ffffffffffffffffffffffffffffffffffffffff16021790555090505060095f8d73ffffffffffffffffffffffffffffffffffffffff1673ffffffffffffffffffffffffffffffffffffffff1681526020019081526020015f2081908060018154018082558091505060019003905f5260205f20015f90919091909150556117d98c826121d8565b3373ffffffffffffffffffffffffffffffffffffffff168c73ffffffffffffffffffffffffffffffffffffffff16827faa0606bdb6d67e12a78a349214b01a28d82721aefb142b7bbd12b4a96f83511c60405160405180910390a480925050509998505050505050505050565b600a602052805f5260405f205f9150905080546118629061357d565b80601f016020809104026020016040519081016040528092919081815260200182805461188e9061357d565b80156118d95780601f106118b0576101008083540402835291602001916118d9565b820191905f5260205f20905b8154815290600101906020018083116118bc57829003601f168201915b505050505081565b6118ec8484846106ef565b6119006118f7611d23565b858585856121f5565b50505050565b60605f73ffffffffffffffffffffffffffffffffffffffff166119288361211d565b73ffffffffffffffffffffffffffffffffffffffff160361197e576040517f08c379a000000000000000000000000000000000000000000000000000000000815260040161197590613a1f565b60405180910390fd5b60085f8381526020019081526020015f20600301805461199d9061357d565b80601f01602080910402602001604051908101604052809291908181526020018280546119c99061357d565b8015611a145780601f106119eb57610100808354040283529160200191611a14565b820191905f5260205f20905b8154815290600101906020018083116119f757829003601f168201915b50505050509050919050565b611a29826107ee565b611a3281611f35565b611a3c8383612033565b50505050565b7f3f81692b0a9da63b9daf0b74ba4f4b42d32f274149cfb9f22dc295459fb826eb611a6c81611f35565b611a967f5bb0bf1fabd5e975fc7a4520766d9e86e0eb281f8c7c44fcd3dfe60a11e786ca83611356565b611ad5576040517f08c379a0000000000000000000000000000000000000000000000000000000008152600401611acc90613c58565b60405180910390fd5b611aff7f5bb0bf1fabd5e975fc7a4520766d9e86e0eb281f8c7c44fcd3dfe60a11e786ca83611a20565b8173ffffffffffffffffffffffffffffffffffffffff163373ffffffffffffffffffffffffffffffffffffffff167f972d5d1c266bb830c72032abb78ab887ab119ba1372a89b971247a98ce881ea160405160405180910390a35050565b5f60055f8473ffffffffffffffffffffffffffffffffffffffff1673ffffffffffffffffffffffffffffffffffffffff1681526020019081526020015f205f8373ffffffffffffffffffffffffffffffffffffffff1673ffffffffffffffffffffffffffffffffffffffff1681526020019081526020015f205f9054906101000a900460ff16905092915050565b5f7f7965db0b000000000000000000000000000000000000000000000000000000007bffffffffffffffffffffffffffffffffffffffffffffffffffffffff1916827bffffffffffffffffffffffffffffffffffffffffffffffffffffffff19161480611c5d5750611c5c826123a1565b5b9050919050565b5f5f611c6f8361211d565b90505f73ffffffffffffffffffffffffffffffffffffffff168173ffffffffffffffffffffffffffffffffffffffff1603611ce157826040517f7e273289000000000000000000000000000000000000000000000000000000008152600401611cd89190613220565b60405180910390fd5b80915050919050565b5f60045f8381526020019081526020015f205f9054906101000a900473ffffffffffffffffffffffffffffffffffffffff169050919050565b5f33905090565b5f5f611d358461211d565b90505f73ffffffffffffffffffffffffffffffffffffffff168373ffffffffffffffffffffffffffffffffffffffff1614611d7657611d75818486612482565b5b5f73ffffffffffffffffffffffffffffffffffffffff168173ffffffffffffffffffffffffffffffffffffffff1614611e0157611db55f855f5f612545565b600160035f8373ffffffffffffffffffffffffffffffffffffffff1673ffffffffffffffffffffffffffffffffffffffff1681526020019081526020015f205f82825403925050819055505b5f73ffffffffffffffffffffffffffffffffffffffff168573ffffffffffffffffffffffffffffffffffffffff1614611e8057600160035f8773ffffffffffffffffffffffffffffffffffffffff1673ffffffffffffffffffffffffffffffffffffffff1681526020019081526020015f205f82825401925050819055505b8460025f8681526020019081526020015f205f6101000a81548173ffffffffffffffffffffffffffffffffffffffff021916908373ffffffffffffffffffffffffffffffffffffffff160217905550838573ffffffffffffffffffffffffffffffffffffffff168273ffffffffffffffffffffffffffffffffffffffff167fddf252ad1be2c89b69c2b068fc378daa952ba7f163c4a11628f55a4df523b3ef60405160405180910390a4809150509392505050565b611f4681611f41611d23565b612704565b50565b5f611f548383611356565b61202957600160065f8581526020019081526020015f205f015f8473ffffffffffffffffffffffffffffffffffffffff1673ffffffffffffffffffffffffffffffffffffffff1681526020019081526020015f205f6101000a81548160ff021916908315150217905550611fc6611d23565b73ffffffffffffffffffffffffffffffffffffffff168273ffffffffffffffffffffffffffffffffffffffff16847f2f8788117e7eff1d82e926ec794901d17c78024a50270940304540a733656f0d60405160405180910390a46001905061202d565b5f90505b92915050565b5f61203e8383611356565b15612113575f60065f8581526020019081526020015f205f015f8473ffffffffffffffffffffffffffffffffffffffff1673ffffffffffffffffffffffffffffffffffffffff1681526020019081526020015f205f6101000a81548160ff0219169083151502179055506120b0611d23565b73ffffffffffffffffffffffffffffffffffffffff168273ffffffffffffffffffffffffffffffffffffffff16847ff6391f5c32d9c69d2a47ea670b442974b53935d1edc7fd64eb21e047a839171b60405160405180910390a460019050612117565b5f90505b92915050565b5f60025f8381526020019081526020015f205f9054906101000a900473ffffffffffffffffffffffffffffffffffffffff169050919050565b5f6121625f835f611d2a565b90505f73ffffffffffffffffffffffffffffffffffffffff168173ffffffffffffffffffffffffffffffffffffffff16036121d457816040517f7e2732890000000000000000000000000000000000000000000000000000000081526004016121cb9190613220565b60405180910390fd5b5050565b6121f1828260405180602001604052805f815250612755565b5050565b5f8373ffffffffffffffffffffffffffffffffffffffff163b111561239a578273ffffffffffffffffffffffffffffffffffffffff1663150b7a02868685856040518563ffffffff1660e01b81526004016122539493929190613cc8565b6020604051808303815f875af192505050801561228e57506040513d601f19601f8201168201806040525081019061228b9190613d26565b60015b61230f573d805f81146122bc576040519150601f19603f3d011682016040523d82523d5f602084013e6122c1565b606091505b505f81510361230757836040517f64a0ae920000000000000000000000000000000000000000000000000000000081526004016122fe9190612c27565b60405180910390fd5b805160208201fd5b63150b7a0260e01b7bffffffffffffffffffffffffffffffffffffffffffffffffffffffff1916817bffffffffffffffffffffffffffffffffffffffffffffffffffffffff19161461239857836040517f64a0ae9200000000000000000000000000000000000000000000000000000000815260040161238f9190612c27565b60405180910390fd5b505b5050505050565b5f7f80ac58cd000000000000000000000000000000000000000000000000000000007bffffffffffffffffffffffffffffffffffffffffffffffffffffffff1916827bffffffffffffffffffffffffffffffffffffffffffffffffffffffff1916148061246b57507f5b5e139f000000000000000000000000000000000000000000000000000000007bffffffffffffffffffffffffffffffffffffffffffffffffffffffff1916827bffffffffffffffffffffffffffffffffffffffffffffffffffffffff1916145b8061247b575061247a82612778565b5b9050919050565b61248d8383836127e1565b612540575f73ffffffffffffffffffffffffffffffffffffffff168373ffffffffffffffffffffffffffffffffffffffff160361250157806040517f7e2732890000000000000000000000000000000000000000000000000000000081526004016124f89190613220565b60405180910390fd5b81816040517f177e802f000000000000000000000000000000000000000000000000000000008152600401612537929190613d51565b60405180910390fd5b505050565b808061257d57505f73ffffffffffffffffffffffffffffffffffffffff168273ffffffffffffffffffffffffffffffffffffffff1614155b156126af575f61258c84611c64565b90505f73ffffffffffffffffffffffffffffffffffffffff168373ffffffffffffffffffffffffffffffffffffffff16141580156125f657508273ffffffffffffffffffffffffffffffffffffffff168173ffffffffffffffffffffffffffffffffffffffff1614155b801561260957506126078184611b5d565b155b1561264b57826040517fa9fbf51f0000000000000000000000000000000000000000000000000000000081526004016126429190612c27565b60405180910390fd5b81156126ad57838573ffffffffffffffffffffffffffffffffffffffff168273ffffffffffffffffffffffffffffffffffffffff167f8c5be1e5ebec7d5bd14f71427d1e84f3dd0314c0f7b2291e5b200ac8c7c3b92560405160405180910390a45b505b8360045f8581526020019081526020015f205f6101000a81548173ffffffffffffffffffffffffffffffffffffffff021916908373ffffffffffffffffffffffffffffffffffffffff16021790555050505050565b61270e8282611356565b6127515780826040517fe2517d3f000000000000000000000000000000000000000000000000000000008152600401612748929190613d78565b60405180910390fd5b5050565b61275f83836128a1565b61277361276a611d23565b5f8585856121f5565b505050565b5f7f01ffc9a7000000000000000000000000000000000000000000000000000000007bffffffffffffffffffffffffffffffffffffffffffffffffffffffff1916827bffffffffffffffffffffffffffffffffffffffffffffffffffffffff1916149050919050565b5f5f73ffffffffffffffffffffffffffffffffffffffff168373ffffffffffffffffffffffffffffffffffffffff161415801561289857508273ffffffffffffffffffffffffffffffffffffffff168473ffffffffffffffffffffffffffffffffffffffff16148061285957506128588484611b5d565b5b8061289757508273ffffffffffffffffffffffffffffffffffffffff1661287f83611cea565b73ffffffffffffffffffffffffffffffffffffffff16145b5b90509392505050565b5f73ffffffffffffffffffffffffffffffffffffffff168273ffffffffffffffffffffffffffffffffffffffff1603612911575f6040517f64a0ae920000000000000000000000000000000000000000000000000000000081526004016129089190612c27565b60405180910390fd5b5f61291d83835f611d2a565b90505f73ffffffffffffffffffffffffffffffffffffffff168173ffffffffffffffffffffffffffffffffffffffff161461298f575f6040517f73c6ac6e0000000000000000000000000000000000000000000000000000000081526004016129869190612c27565b60405180910390fd5b505050565b5080546129a09061357d565b5f825580601f106129b157506129ce565b601f0160209004905f5260205f20908101906129cd9190612a1b565b5b50565b6040518060c00160405280606081526020016060815260200160608152602001606081526020015f81526020015f73ffffffffffffffffffffffffffffffffffffffff1681525090565b5b80821115612a32575f815f905550600101612a1c565b5090565b5f604051905090565b5f5ffd5b5f5ffd5b5f7fffffffff0000000000000000000000000000000000000000000000000000000082169050919050565b612a7b81612a47565b8114612a85575f5ffd5b50565b5f81359050612a9681612a72565b92915050565b5f60208284031215612ab157612ab0612a3f565b5b5f612abe84828501612a88565b91505092915050565b5f8115159050919050565b612adb81612ac7565b82525050565b5f602082019050612af45f830184612ad2565b92915050565b5f81519050919050565b5f82825260208201905092915050565b8281835e5f83830152505050565b5f601f19601f8301169050919050565b5f612b3c82612afa565b612b468185612b04565b9350612b56818560208601612b14565b612b5f81612b22565b840191505092915050565b5f6020820190508181035f830152612b828184612b32565b905092915050565b5f819050919050565b612b9c81612b8a565b8114612ba6575f5ffd5b50565b5f81359050612bb781612b93565b92915050565b5f60208284031215612bd257612bd1612a3f565b5b5f612bdf84828501612ba9565b91505092915050565b5f73ffffffffffffffffffffffffffffffffffffffff82169050919050565b5f612c1182612be8565b9050919050565b612c2181612c07565b82525050565b5f602082019050612c3a5f830184612c18565b92915050565b612c4981612c07565b8114612c53575f5ffd5b50565b5f81359050612c6481612c40565b92915050565b5f5f60408385031215612c8057612c7f612a3f565b5b5f612c8d85828601612c56565b9250506020612c9e85828601612ba9565b9150509250929050565b5f5f5f60608486031215612cbf57612cbe612a3f565b5b5f612ccc86828701612c56565b9350506020612cdd86828701612c56565b9250506040612cee86828701612ba9565b9150509250925092565b5f819050919050565b612d0a81612cf8565b8114612d14575f5ffd5b50565b5f81359050612d2581612d01565b92915050565b5f60208284031215612d4057612d3f612a3f565b5b5f612d4d84828501612d17565b91505092915050565b612d5f81612cf8565b82525050565b5f602082019050612d785f830184612d56565b92915050565b5f60208284031215612d9357612d92612a3f565b5b5f612da084828501612c56565b91505092915050565b5f81519050919050565b5f82825260208201905092915050565b5f819050602082019050919050565b612ddb81612b8a565b82525050565b5f612dec8383612dd2565b60208301905092915050565b5f602082019050919050565b5f612e0e82612da9565b612e188185612db3565b9350612e2383612dc3565b805f5b83811015612e53578151612e3a8882612de1565b9750612e4583612df8565b925050600181019050612e26565b5085935050505092915050565b5f6020820190508181035f830152612e788184612e04565b905092915050565b5f5f60408385031215612e9657612e95612a3f565b5b5f612ea385828601612d17565b9250506020612eb485828601612c56565b9150509250929050565b5f81519050919050565b5f82825260208201905092915050565b5f819050602082019050919050565b5f82825260208201905092915050565b5f612f0182612afa565b612f0b8185612ee7565b9350612f1b818560208601612b14565b612f2481612b22565b840191505092915050565b612f3881612c07565b82525050565b5f60c083015f8301518482035f860152612f588282612ef7565b91505060208301518482036020860152612f728282612ef7565b91505060408301518482036040860152612f8c8282612ef7565b91505060608301518482036060860152612fa68282612ef7565b9150506080830151612fbb6080860182612dd2565b5060a0830151612fce60a0860182612f2f565b508091505092915050565b5f612fe48383612f3e565b905092915050565b5f602082019050919050565b5f61300282612ebe565b61300c8185612ec8565b93508360208202850161301e85612ed8565b805f5b85811015613059578484038952815161303a8582612fd9565b945061304583612fec565b925060208a01995050600181019050613021565b50829750879550505050505092915050565b5f6020820190508181035f8301526130838184612ff8565b905092915050565b5f5ffd5b5f5ffd5b7f4e487b71000000000000000000000000000000000000000000000000000000005f52604160045260245ffd5b6130c982612b22565b810181811067ffffffffffffffff821117156130e8576130e7613093565b5b80604052505050565b5f6130fa612a36565b905061310682826130c0565b919050565b5f67ffffffffffffffff82111561312557613124613093565b5b61312e82612b22565b9050602081019050919050565b828183375f83830152505050565b5f61315b6131568461310b565b6130f1565b9050828152602081018484840111156131775761317661308f565b5b61318284828561313b565b509392505050565b5f82601f83011261319e5761319d61308b565b5b81356131ae848260208601613149565b91505092915050565b5f5f604083850312156131cd576131cc612a3f565b5b5f6131da85828601612c56565b925050602083013567ffffffffffffffff8111156131fb576131fa612a43565b5b6132078582860161318a565b9150509250929050565b61321a81612b8a565b82525050565b5f6020820190506132335f830184613211565b92915050565b61324281612ac7565b811461324c575f5ffd5b50565b5f8135905061325d81613239565b92915050565b5f5f6040838503121561327957613278612a3f565b5b5f61328685828601612c56565b92505060206132978582860161324f565b9150509250929050565b5f5ffd5b5f5ffd5b5f5f83601f8401126132be576132bd61308b565b5b8235905067ffffffffffffffff8111156132db576132da6132a1565b5b6020830191508360018202830111156132f7576132f66132a5565b5b9250929050565b5f5f5f5f5f5f5f5f5f60a08a8c03121561331b5761331a612a3f565b5b5f6133288c828d01612c56565b99505060208a013567ffffffffffffffff81111561334957613348612a43565b5b6133558c828d016132a9565b985098505060408a013567ffffffffffffffff81111561337857613377612a43565b5b6133848c828d016132a9565b965096505060608a013567ffffffffffffffff8111156133a7576133a6612a43565b5b6133b38c828d016132a9565b945094505060808a013567ffffffffffffffff8111156133d6576133d5612a43565b5b6133e28c828d016132a9565b92509250509295985092959850929598565b5f67ffffffffffffffff82111561340e5761340d613093565b5b61341782612b22565b9050602081019050919050565b5f613436613431846133f4565b6130f1565b9050828152602081018484840111156134525761345161308f565b5b61345d84828561313b565b509392505050565b5f82601f8301126134795761347861308b565b5b8135613489848260208601613424565b91505092915050565b5f5f5f5f608085870312156134aa576134a9612a3f565b5b5f6134b787828801612c56565b94505060206134c887828801612c56565b93505060406134d987828801612ba9565b925050606085013567ffffffffffffffff8111156134fa576134f9612a43565b5b61350687828801613465565b91505092959194509250565b5f5f6040838503121561352857613527612a3f565b5b5f61353585828601612c56565b925050602061354685828601612c56565b9150509250929050565b7f4e487b71000000000000000000000000000000000000000000000000000000005f52602260045260245ffd5b5f600282049050600182168061359457607f821691505b6020821081036135a7576135a6613550565b5b50919050565b7f5342543a20617070726f76616c2064697361626c6564000000000000000000005f82015250565b5f6135e1601683612b04565b91506135ec826135ad565b602082019050919050565b5f6020820190508181035f83015261360e816135d5565b9050919050565b5f6060820190506136285f830186612c18565b6136356020830185613211565b6136426040830184612c18565b949350505050565b7f696e76616c6964206164647265737300000000000000000000000000000000005f82015250565b5f61367e600f83612b04565b91506136898261364a565b602082019050919050565b5f6020820190508181035f8301526136ab81613672565b9050919050565b7f6e6f7420617574686f72697a656420746f2076696577206465677265657320665f8201527f6f7220746869732073747564656e740000000000000000000000000000000000602082015250565b5f61370c602f83612b04565b9150613717826136b2565b604082019050919050565b5f6020820190508181035f83015261373981613700565b9050919050565b5f819050815f5260205f209050919050565b5f6020601f8301049050919050565b5f82821b905092915050565b5f6008830261379c7fffffffffffffffffffffffffffffffffffffffffffffffffffffffffffffffff82613761565b6137a68683613761565b95508019841693508086168417925050509392505050565b5f819050919050565b5f6137e16137dc6137d784612b8a565b6137be565b612b8a565b9050919050565b5f819050919050565b6137fa836137c7565b61380e613806826137e8565b84845461376d565b825550505050565b5f5f905090565b613825613816565b6138308184846137f1565b505050565b5b81811015613853576138485f8261381d565b600181019050613836565b5050565b601f8211156138985761386981613740565b61387284613752565b81016020851015613881578190505b61389561388d85613752565b830182613835565b50505b505050565b5f82821c905092915050565b5f6138b85f198460080261389d565b1980831691505092915050565b5f6138d083836138a9565b9150826002028217905092915050565b6138e982612afa565b67ffffffffffffffff81111561390257613901613093565b5b61390c825461357d565b613917828285613857565b5f60209050601f831160018114613948575f8415613936578287015190505b61394085826138c5565b8655506139a7565b601f19841661395686613740565b5f5b8281101561397d57848901518255600182019150602085019450602081019050613958565b8683101561399a5784890151613996601f8916826138a9565b8355505b6001600288020188555050505b505050505050565b7f4552433732313a2055524920717565727920666f72206e6f6e6578697374656e5f8201527f7420746f6b656e00000000000000000000000000000000000000000000000000602082015250565b5f613a09602783612b04565b9150613a14826139af565b604082019050919050565b5f6020820190508181035f830152613a36816139fd565b9050919050565b7f6e6f7420617574686f72697a656420746f207265766f6b6500000000000000005f82015250565b5f613a71601883612b04565b9150613a7c82613a3d565b602082019050919050565b5f6020820190508181035f830152613a9e81613a65565b9050919050565b7f4e487b71000000000000000000000000000000000000000000000000000000005f52603260045260245ffd5b7f4e487b71000000000000000000000000000000000000000000000000000000005f52601160045260245ffd5b5f613b0982612b8a565b9150613b1483612b8a565b9250828203905081811115613b2c57613b2b613ad2565b5b92915050565b7f4e487b71000000000000000000000000000000000000000000000000000000005f52603160045260245ffd5b7f696e76616c69642073747564656e7420616464726573730000000000000000005f82015250565b5f613b93601783612b04565b9150613b9e82613b5f565b602082019050919050565b5f6020820190508181035f830152613bc081613b87565b9050919050565b5f613bd182612b8a565b91507fffffffffffffffffffffffffffffffffffffffffffffffffffffffffffffffff8203613c0357613c02613ad2565b5b600182019050919050565b7f6e6f74206120756e6976657273697479000000000000000000000000000000005f82015250565b5f613c42601083612b04565b9150613c4d82613c0e565b602082019050919050565b5f6020820190508181035f830152613c6f81613c36565b9050919050565b5f81519050919050565b5f82825260208201905092915050565b5f613c9a82613c76565b613ca48185613c80565b9350613cb4818560208601612b14565b613cbd81612b22565b840191505092915050565b5f608082019050613cdb5f830187612c18565b613ce86020830186612c18565b613cf56040830185613211565b8181036060830152613d078184613c90565b905095945050505050565b5f81519050613d2081612a72565b92915050565b5f60208284031215613d3b57613d3a612a3f565b5b5f613d4884828501613d12565b91505092915050565b5f604082019050613d645f830185612c18565b613d716020830184613211565b9392505050565b5f604082019050613d8b5f830185612c18565b613d986020830184612d56565b939250505056fea26469706673582212205fa244b85f99aa80e94c8f54d36333c7900dc8fa16a73ceaef761667849c8cc264736f6c634300081c0033",
  "linkReferences": {},
  "deployedLinkReferences": {},
  "immutableReferences": {},
  "inputSourceName": "project/contracts/UniversityDegreesSBT.sol",
  "buildInfoId": "solc-0_8_28-d00bd72ee92290b4de6a8d243d59100079230633"
}